:100000000202680810D0ECC8B5C7BF51510808D229
:10001000F8D0D0BDA3BFCD0818B7B2B3B401111149
:100020001160200020990000000000000000000086
:1000300000000000000000000000000000000000C0
:06004000000000000000BA
:10004B000203C0E709F608DFFA8046E709F208DF8A
:10005B00FA803E88828C83E709F0A3DFFA8032E3D3
:10006B0009F608DFFA8078E309F208DFFA80708876
:10007B00828C83E309F0A3DFFA806489828A83E0B0
:10008B00A3F608DFFA805889828A83E0A3F208DF9F
:10009B00FA804C80D280FA80C680D4806980F2804E
:1000AB0033801080A680EA809A80A880DA80E28074
:1000BB00CA803389828A83ECFAE493A3C8C582C8C9
:1000CB00CCC583CCF0A3C8C582C8CCC583CCDFE933
:1000DB00DEE7800D89828A83E493A3F608DFF9ECCF
:1000EB00FAA9F0EDFB2289828A83ECFAE0A3C8C55A
:1000FB0082C8CCC583CCF0A3C8C582C8CCC583CC81
:10010B00DFEADEE880DB89828A83E493A3F208DFEF
:10011B00F980CC88F0EF60010E4E60C388F0ED24BF
:10012B0002B4040050B9F582EB2402B4040050AFC2
:10013B00232345822390009E73BB010689828A8309
:10014B00E0225002E722BBFE02E32289828A83E48B
:10015B009322F8BB010DE58229F582E5833AF583FD
:10016B00E8F0225006E92582C8F622BBFE05E925F8
:10017B0082C8F22275210878227C007D007BFF7AF1
:10018B000579137E007F0212011EE4F52578267C8B
:10019B0000FD7BFF7A057915FE7F0212011E782880
:1001AB007C007D007BFF7A0579177E007F021201B0
:1001BB001EE4F52AF52BF52CF5241204F012049A03
:1001CB001202F4D2AF1204FD75FCF175BCA130988C
:1001DB0064C29874402524F582E43400F583E599D4
:1001EB00F0900040E0B42A0405248003E4F524E5F4
:1001FB0024C39422403CE4F524900061E0647E70BB
:10020B0031F524F52C7441252CF582E43400F5836B
:10021B00E0FF7420252CF582E43400F583EFF00524
:10022B002CE52CB420DF1204B6A204720550FAE4BC
:10023B00F5201204FD300696E4F5207F2A1203B850
:10024B007F201203B890000012035CA312035C7FA3
:10025B007E1203B81203B81203B80201D9787FE4F7
:10026B00F6D8FD7581360202AF02017FE493A3F845
:10027B00E493A34003F68001F208DFF48029E493B2
:10028B00A3F85407240CC8C333C4540F4420C883A9
:10029B004004F456800146F6DFE4800B01020408AB
:1002AB0010204080900003E47E019360BCA3FF54B8
:1002BB003F30E509541FFEE493A360010ECF54C0F9
:1002CB0025E060A840B8E493A3FAE493A3F8E49381
:1002DB00A3C8C582C8CAC583CAF0A3C8C582C8CA89
:1002EB00C583CADFE9DEE780BEC2E8D2EAD2B97FB6
:1002FB00C87E001204797B007A0079107531087F73
:10030B00301204167B007A0079087531087F2A12A7
:10031B0004167B007A0079187531087F2B120416AE
:10032B007D207F311204D07D207F321204D07D03DB
:10033B007F211204D07D037F221204D07D1A7F24EB
:10034B001204D07D287F251204D07D0F7F26020456
:10035B00D0E0FF1203B8A3E0FF1203B8A3E0FF1233
:10036B0003B8A3E0FF1203B8A3E0FF1203B8A3E0A6
:10037B00FF1203B8A3E0FF1203B8A3E0FF1203B808
:10038B00A3E0FF1203B8A3E0FF1203B8A3E0FF1230
:10039B0003B8A3E0FF1203B8A3E0FF1203B8A3E076
:1003AB00FF1203B8A3E0FF1203B8A3E0FF3099FDDF
:1003BB00C2998F9922C0E0C083C082C0D075D00093
:1003CB00C000C001C002C003C005C006C0077F0744
:1003DB001204E38F203006157B017A007900753605
:1003EB00207F61120448E4FD7FE21204D07D707F10
:1003FB00271204D0D007D006D005D003D002D001ED
:10040B00D000D0D0D082D083D0E0328B2E8A2F89EF
:10041B0030C2E9120509AE07E4FDEDC39531501862
:10042B00AB2E0530E530AA2F7002052F14F91201FF
:10043B0044FF1205090D80E2D2E9AF06228B338A05
:10044B00348935C2E9120509AE07E4FDEDC39536D3
:10045B005017E4FF120509AB33AA34A9358D827509
:10046B008300EF12015D0D80E3D2E9AF0622E4FDBC
:10047B00FCC3ED9FEC9E50167B6C7A00EB1B8A83C2
:10048B0070011A458370F50DBD00010C80E322C28B
:10049B00ACD29CC29FD29E43878043D88075AAF36F
:1004AB0075BA03C299C298E4F59922C2E87D0E7F12
:1004BB00201204D07B017A0079207531207FA012A5
:1004CB000416D2E822AE05C2E9120509AD07AF0644
:1004DB00120509D2E9AF0522C2E9120509E4FF12A0
:1004EB000509D2E9227593B07594F37F647E0002FF
:1004FB000479C2E87D0F7F201204D0D2E8228FE767
:0E050B00E5E630E1FBAFE722FFFF00000F0F37
:00000001FF
