:020000040800F2
:1000000000000320090200085902000859020008F4
:1000100059020008590200085902000800000000B7
:100020000000000000000000000000006D0F00084C
:10003000590200080000000075110008950A000828
:100040005902000859020008590200085902000824
:100050005902000859020008590200085902000814
:100060005902000859020008590200085902000804
:1000700059020008590200085902000859020008F4
:1000800059020008590200085902000859020008E4
:1000900059020008590200085902000859020008D4
:1000A00059020008590200085902000859020008C4
:1000B00059020008590200085902000859020008B4
:1000C00059020008590200085902000859020008A4
:1000D0005902000859020008590200085902000894
:1000E0005902000859020008590200085902000884
:1000F00059020008A10A0008590200085902000824
:100100005902000859020008590200085902000863
:100110005902000859020008590200085902000853
:100120005902000859020008590200085902000843
:100130005902000859020008590200085902000833
:100140005902000859020008590200085902000823
:100150005902000859020008590200085902000813
:100160005902000859020008590200085902000803
:100170005902000859020008590200080000000056
:1001800059020008590200085902000859020008E3
:1001900059020008590200085902000859020008D3
:0C01A0005902000859020008590200082A
:1001AC0010B5054C237833B9044B13B10448AFF3A5
:1001BC0000800123237010BD3004002000000000DB
:1001CC006C340008084B10B51BB108490848AFF354
:1001DC0000800848036803B910BD074B002BFBD007
:1001EC00BDE81040184700BF000000003404002098
:1001FC006C3400083004002000000000DFF834D01C
:10020C00002103E00C4B5B58435004310B480C4B62
:10021C0042189A42F6D30B4A02E0002342F8043B00
:10022C00094B9A42F9D300F03FFC03F02DF800F093
:10023C002FF8704700000320D03400080000002085
:10024C003004002030040020DC410020FEE70000D8
:10025C0080B584B000AF78600023FB73FB7B002B70
:10026C0006D000224FF4C041084802F001F905E025
:10027C0001224FF4C041054802F0FAF8FB7BDB4346
:10028C00FB734FF47A7001F0E9F9E7E700180240CC
:10029C00B0B58AB004AF01F0DDFD00F02BF800F032
:1002AC009FF8104B3C1D1D460FCD0FC42B682360CF
:1002BC003B1D0021184600F0F3FF02460A4B1A6062
:1002CC000023039300230293002301930223009342
:1002DC000023C8220549064801F0E4F800F0D8FFD5
:1002EC00FEE700BF943400089841002084340008D5
:1002FC005D02000880B594B000AF0023BB60354AA6
:10030C00344B1B6C43F080531364324B1B6C03F067
:10031C008053BB60BB6800237B602F4A2E4B1B684D
:10032C0043F4404313602C4B1B6803F440437B6045
:10033C007B6802233B620123FB6210233B63022395
:10034C00BB630023FB6308233B64B4237B6402235D
:10035C00BB640723FB6407F12003184602F00AF97B
:10036C000346002B01D000F0FFFA02F09BF8034685
:10037C00002B01D000F0F8FA0F23FB6002233B6145
:10038C0000237B614FF4A053BB614FF48053FB619E
:10039C0007F10C030521184602F046FB0346002B1F
:1003AC0001D000F0E1FA02F0CFFC02460B4BA3FBAC
:1003BC0002239B09184601F089FE042001F092FEED
:1003CC0000220F214FF0FF3001F056FE00BF5037D6
:1003DC00BD4680BD0038024000700040D34D621015
:1003EC0080B58EB000AF00233B62B14AB04B1B6BA3
:1003FC0043F010031363AE4B1B6B03F010033B6213
:10040C003B6A0023FB61AA4AA94B1B6B43F0040314
:10041C001363A74B1B6B03F00403FB61FB69002305
:10042C00BB61A34AA24B1B6B43F020031363A04B8D
:10043C001B6B03F02003BB61BB6900237B619C4AEF
:10044C009B4B1B6B43F080031363994B1B6B03F0AB
:10045C0080037B617B6900233B61954A944B1B6B4A
:10046C0043F001031363924B1B6B03F001033B61DD
:10047C003B690023FB608E4A8D4B1B6B43F00203E0
:10048C0013638B4B1B6B03F00203FB60FB680023B5
:10049C00BB60874A864B1B6B43F040031363844B52
:1004AC001B6B03F04003BB60BB6800237B60804A7E
:1004BC007F4B1B6B43F0080313637D4B1B6B03F0EB
:1004CC0008037B607B68002216217A4801F0D0FF7C
:1004DC0000228021784801F0CBFF00224FF44051DC
:1004EC00764801F0C5FF00224FF4C041744801F07A
:1004FC00BFFF7C237B620323BB620023FB6207F1FB
:10050C00240319466F4801F009FE43F608137B6279
:10051C000323BB620023FB6207F1240319466548E1
:10052C0001F0FCFD4FF63F037B620223BB6200230C
:10053C00FB6203233B630C237B6307F12403194603
:10054C00614801F0EBFD40237B620323BB62002377
:10055C00FB6207F1240319465B4801F0DFFD4FF401
:10056C0060737B620223BB620023FB6200233B634C
:10057C0005237B6307F124031946534801F0CEFD94
:10058C004FF480637B620223BB620023FB62002377
:10059C003B630E237B6307F1240319464A4801F0A1
:1005AC00BDFD01237B620223BB620023FB6203239C
:1005BC003B630C237B6307F1240319463D4801F090
:1005CC00ADFD16237B620123BB620023FB6200237B
:1005DC003B6307F124031946364801F09FFD48F2AE
:1005EC0007037B62394BBB620023FB6207F12403D8
:1005FC001946314801F092FD41F658037B62022303
:10060C00BB620023FB6200233B630E237B6307F179
:10061C0024031946284801F081FD4FF4C4637B6222
:10062C000323BB620023FB6207F124031946224813
:10063C0001F074FD80237B620123BB620023FB620B
:10064C0000233B6307F1240319461B4801F066FDA8
:10065C0020237B621D4BBB620023FB6207F124034A
:10066C001946144801F05AFD03237B620223BB6236
:10067C000023FB6200233B6309237B6307F1240304
:10068C001946134801F04AFD04237B620023BB6228
:10069C000023FB6207F1240319460D4801F03EFDCF
:1006AC0048F233137B620223BB620023FB6211E02E
:1006BC00003802400008024000000240000C0240DA
:1006CC0000180240001002400014024000001210FA
:1006DC000004024003233B630C237B6307F12403D8
:1006EC0019468E4801F01AFD4FF683737B62022384
:1006FC00BB620023FB6203233B630C237B6307F188
:10070C0024031946864801F009FD4FF470637B629F
:10071C000223BB620023FB6200233B630E237B633B
:10072C0007F1240319467F4801F0F8FC4FF45043BD
:10073C007B620223BB620023FB6200233B630C231E
:10074C007B6307F124031946764801F0E7FC4FF46C
:10075C0000537B620023BB620023FB6207F124037E
:10076C001946704801F0DAFC4CF203737B620223E9
:10077C00BB620023FB6203233B630C237B6307F107
:10078C0024031946684801F0C9FC4FF400637B62EE
:10079C000023BB620023FB6207F124031946624865
:1007AC0001F0BCFC4FF440537B620123BB6200237D
:1007BC00FB6200233B6307F1240319465A4801F0FE
:1007CC00ADFC4FF403737B620323BB620023FB621B
:1007DC0007F124031946514801F0A0FC4FF40C63B7
:1007EC007B620223BB620023FB6200233B630E236C
:1007FC007B6307F124031946484801F08FFC4FF442
:10080C0098637B620223BB620023FB6200233B6381
:10081C000E237B6307F124031946444801F07EFC48
:10082C004FF400737B621223BB620123FB62002333
:10083C003B6304237B6307F1240319463B4801F017
:10084C006DFC4FF480737B621223BB620123FB624D
:10085C0000233B6304237B6307F1240319463448CC
:10086C0001F05CFCB4237B620323BB620023FB62BC
:10087C0007F1240319462C4801F050FC48237B62F5
:10088C000223BB620023FB6200233B630E237B63CA
:10089C0007F124031946244801F040FC4FF4A053FF
:1008AC007B620223BB620023FB6200233B630923B0
:1008BC007B6307F124031946184801F02FFC4FF411
:1008CC00C0437B620123BB620023FB6200233B63BA
:1008DC0007F124031946114801F020FC98237B6290
:1008EC000323BB620023FB6207F1240319460D4866
:1008FC0001F014FC60237B620223BB620023FB62C9
:10090C0003233B630C237B6307F12403194605483F
:10091C0001F004FC00BF3837BD4680BD0018024012
:10092C000010024000040240000C0240000802408B
:10093C000000024080B582B000AF7860012000F06A
:10094C00DBFCFBE780B582B000AF78607B681B688E
:10095C00044A934201D101F09FFA00BF0837BD460B
:10096C0080BD00BF0020004080B400AFFEE700BF98
:10097C0080B500AF032001F073FB002200216FF063
:10098C000B0001F079FB002200216FF00A0001F04E
:10099C0073FB002200216FF0090001F06DFB0022B7
:1009AC0000216FF0040001F067FB002200216FF0C2
:1009BC00030001F061FB00220F216FF0010001F038
:1009CC005BFB00220F214FF0FF3001F055FB00BF05
:1009DC0080BD00BF80B58CB000AF78600023FB6297
:1009EC000023BB62002279682D2001F045FB2D20ED
:1009FC0001F05EFB0023FB601F4A1F4B1B6C43F492
:100A0C00807313641C4B1B6C03F48073FB60FB68DA
:100A1C0007F1100207F114031146184602F0C2F94F
:100A2C0002F09EF903465B00FB62FB6A134AA2FBD1
:100A3C0003239B0C013BBB62114B124A1A60104BF7
:100A4C0040F2E732DA600E4ABB6A53600C4B00226C
:100A5C001A610B4B00229A60094802F0D5F9034643
:100A6C00002B04D1064802F005FA034600E00123EE
:100A7C0018463037BD4680BD0038024083DE1B432C
:100A8C009C4100200020004080B500AF00F048FCE5
:100A9C0000BF80BD80B500AF024802F007FA00BF6E
:100AAC0080BD00BF9C41002080B400AF164A164B9D
:100ABC00D3F8883043F47003C2F88830134A134BD0
:100ACC001B6843F001031360104B00229A600F4A1D
:100ADC000E4B1B6823F0847323F4803313600B4B91
:100AEC000B4A5A60094A094B1B6823F48023136094
:100AFC00064B0022DA60044B4FF000629A6000BF94
:100B0C00BD465DF8047B704700ED00E00038024004
:100B1C001030002480B58AB000AF78600023FB61F0
:100B2C0000F034FE574B1B68002B01D100F00CF980
:100B3C00554B1A687B681340002B40F08C807B6807
:100B4C00002B1CD008227B6813447B607B6803F06D
:100B5C000703002B13D07B6823F0070308337B605B
:100B6C007B6803F00703002B09D04FF0500383F38D
:100B7C001188BFF36F8FBFF34F8FFB60FEE77B686D
:100B8C00002B68D0414B1B687A689A4263D8404B63
:100B9C003B623F4B1B687B6204E07B6A3B627B6A77
:100BAC001B687B627B6A5A687B689A4203D27B6AB9
:100BBC001B68002BF1D1334B1B687A6A9A424AD0DE
:100BCC003B6A1B6808221344FB617B6A1A683B6A08
:100BDC001A607B6A5A687B68D21A08235B009A42B7
:100BEC001ED97A6A7B6813447B617B6903F0070327
:100BFC00002B09D04FF0500383F31188BFF36F8F94
:100C0C00BFF34F8FBB61FEE77B6A5A687B68D21AD1
:100C1C007B695A607B6A7A685A60786900F0F6F8EA
:100C2C001A4B1A687B6A5B68D31A184A1360174B05
:100C3C001A68184B1B689A4203D2144B1B68154A4E
:100C4C0013607B6A5A68104B1B681A437B6A5A60A4
:100C5C007B6A00221A6000F0A7FDFB6903F0070312
:100C6C00002B09D04FF0500383F31188BFF36F8F23
:100C7C00BFF34F8F3B61FEE7FB6918462837BD4633
:100C8C0080BD00BF54400020604000205840002030
:100C9C004C4000205C40002080B586B000AF7860EE
:100CAC007B687B617B68002B46D008235B427A69AA
:100CBC0013447B617B693B613B695A68204B1B6821
:100CCC001340002B09D14FF0500383F31188BFF36D
:100CDC006F8FBFF34F8FBB60FEE73B691B68002B28
:100CEC0009D04FF0500383F31188BFF36F8FBFF31C
:100CFC004F8FFB60FEE73B695A68114B1B68134032
:100D0C00002B19D03B691B68002B15D13B695A6825
:100D1C000B4B1B68DB431A403B695A6000F036FDF5
:100D2C003B695A68074B1B681344064A13603869C1
:100D3C0000F06CF800F038FD00BF1837BD4680BDE0
:100D4C00604000205840002080B485B000AF4FF4C4
:100D5C007053BB60274BFB60FB6803F00703002B51
:100D6C000CD0FB680733FB60FB6823F00703FB60C8
:100D7C00BA68FB68D31A1F4A1344BB60FB687B60DC
:100D8C001D4A7B6813601C4B00225A607A68BB6852
:100D9C001344FB600822FB689B1AFB60FB6823F082
:100DAC000703FB60FB68154A1360144B1B68002299
:100DBC005A60124B1B6800221A607B683B603B68D0
:100DCC00FA68D21A3B685A600C4B1A683B681A6076
:100DDC003B685B680A4A13603B685B68094A1360AE
:100DEC00094B4FF000421A6000BF1437BD465DF846
:100DFC00047B70474C0400204C40002054400020E1
:100E0C005C400020584000206040002080B485B039
:100E1C0000AF7860284BFB6002E0FB681B68FB604E
:100E2C00FB681A687B689A42F7D3FB68BB60FB6867
:100E3C005B68BA681A447B689A4208D1FB685A68A6
:100E4C007B685B681A44FB685A60FB687B607B6854
:100E5C00BB607B685B68BA681A44FB681B689A4283
:100E6C0018D1FB681A68154B1B689A420DD07B6829
:100E7C005A68FB681B685B681A447B685A60FB689D
:100E8C001B681A687B681A6008E00C4B1A687B6850
:100E9C001A6003E0FB681A687B681A60FA687B6862
:100EAC009A4202D0FB687A681A6000BF1437BD46BC
:100EBC005DF8047B704700BF4C400020544000207C
:100ECC0080B485B000AFF860B9607A60FB68043B11
:100EDC00FB60FB684FF080721A60FB68043BFB60A0
:100EEC00BA68FB681A60FB68043BFB600C4AFB6841
:100EFC001A60FB68143BFB607A68FB681A60FB683D
:100F0C00043BFB60FB686FF002021A60FB68203B3D
:100F1C00FB60FB6818461437BD465DF8047B7047D0
:100F2C00310F000880B483B000AF0C4B1B68B3F1D9
:100F3C00FF3F09D04FF0500383F31188BFF36F8F3D
:100F4C00BFF34F8F3B60FEE74FF0500383F31188E4
:100F5C00BFF36F8FBFF34F8F7B60FEE70400002061
:100F6C00064B19680868B0E8F04F80F30988BFF3A6
:100F7C006F8F4FF0000080F3118870476C40002099
:100F8C0000BF00BF06480068006880F3088862B69E
:100F9C0061B6BFF34F8FBFF36F8F00DF00BF00BF91
:100FAC0008ED00E080B586B000AF3B4B1B683B4AB8
:100FBC00934209D14FF0500383F31188BFF36F8F25
:100FCC00BFF34F8FFB60FEE7334B1B68344A9342F1
:100FDC0009D14FF0500383F31188BFF36F8FBFF328
:100FEC004F8F3B61FEE72F4B7B617B691B78DBB23C
:100FFC00BB607B69FF221A707B691B78DBB2FB71CB
:10100C00FB79DBB203F05003DAB2274B1A70274B93
:10101C0007221A6009E0254B1B68013B234A136029
:10102C00FB79DBB25B00DBB2FB71FB79DBB25BB251
:10103C00002BF0DB1D4B1B681B021C4A13601B4B67
:10104C001B6803F4E063194A1360BB68DAB27B696E
:10105C001A70174A164B1B6843F470031360144A3A
:10106C00134B1B6843F07043136000F0D3F8114B23
:10107C0000221A6000F0EAF80F4A0F4B1B6843F08D
:10108C0040431360FFF77EFFFFF74CFF0023184629
:10109C001837BD4680BD00BF00ED00E071C20F41A6
:1010AC0070C20F4100E400E0644000206840002062
:1010BC0020ED00E00400002034EF00E080B483B0A9
:1010CC0000AF4FF0500383F31188BFF36F8FBFF362
:1010DC004F8F3B600E4B1B6801330D4A13600C4B5A
:1010EC001B68012B0ED10B4B1B68DBB2002B09D0FC
:1010FC004FF0500383F31188BFF36F8FBFF34F8F03
:10110C007B60FEE700BF0C37BD465DF8047B704783
:10111C000400002004ED00E080B483B000AF114B5C
:10112C001B68002B09D14FF0500383F31188BFF3D8
:10113C006F8FBFF34F8F3B60FEE70A4B1B68013B81
:10114C00084A1360074B1B68002B04D100237B60FB
:10115C007B6883F3118800BF0C37BD465DF8047BB8
:10116C00704700BF04000020EFF30980BFF36F8FBE
:10117C00144B1A681EF0100F08BF20ED108A20E9DE
:10118C00F04F10604DF8043D4FF0500080F3118883
:10119C00BFF34F8FBFF36F8F00F058FC4FF0000080
:1011AC0080F3118808BC19680868B0E8F04F1EF08D
:1011BC00100F08BFB0EC108A80F30988BFF36F8F53
:1011CC00704700BF6C40002000BF00BF80B584B0EA
:1011DC0000AFEFF311824FF0500383F31188BFF38C
:1011EC006F8FBFF34F8FBA607B6000F071FB0346CB
:1011FC00002B03D0064B4FF080521A600023FB608B
:10120C00FB6883F3118800BF1037BD4680BD00BF5B
:10121C0004ED00E080B400AF084A094B1B68094993
:10122C00A1FB03139B09013B1360074B07221A60B8
:10123C0000BFBD465DF8047B704700BF14E000E0C2
:10124C0000000020D34D621010E000E0DFF80C002D
:10125C00016841F470010160704700BF88ED00E047
:10126C0080B485B000AF0346FB800023FB60B7F968
:10127C000630842B05D0B7F90620FB6813440333E2
:10128C00FB60FB6818461437BD465DF8047B70475D
:10129C0080B500AF00F034FA0023184680BD00BFC3
:1012AC00F0B589B004AF786039607B685C687B68A6
:1012BC001D687B681B699EB27B68B3F908301846C1
:1012CC00FFF7CEFF0246002303930023029307F19E
:1012DC000C03019300923B6832462946204600F0ED
:1012EC00E1F80346012B01D0002300E0FB6818460F
:1012FC001437BD46F0BD00BF80B584B000AF786038
:10130C007B68FB60FB68002B01D0FB6800E00123CD
:10131C00184600F0A3F9002318461037BD4680BDCF
:10132C0080B500AF00F078FD0346012B01D0FFF72C
:10133C004DFF00BF80BD00BF80B483B000AF7860AC
:10134C007B6803F108027B685A607B684FF0FF32C0
:10135C009A607B6803F108027B68DA607B6803F1B2
:10136C0008027B681A617B6800221A6000BF0C3788
:10137C00BD465DF8047B704780B483B000AF7860E5
:10138C007B6800221A6100BF0C37BD465DF8047BF8
:10139C00704700BF80B485B000AF786039607B685F
:1013AC005B68FB603B68FA685A60FB689A683B684C
:1013BC009A60FB689B683A685A60FB683A689A6066
:1013CC003B687A681A617B681B685A1C7B681A60D8
:1013DC0000BF1437BD465DF8047B704780B485B000
:1013EC0000AF786039603B681B68BB60BB68B3F1C9
:1013FC00FF3F03D17B681B69FB600CE07B68083303
:10140C00FB6002E0FB685B68FB60FB685B681A686A
:10141C00BB689A42F6D9FB685A683B685A603B68CD
:10142C005B683A689A603B68FA689A60FB683A684D
:10143C005A603B687A681A617B681B685A1C7B6827
:10144C001A6000BF1437BD465DF8047B704700BFBF
:10145C0080B485B000AF78607B681B69FB607B68EB
:10146C005B687A6892689A607B689B687A68526855
:10147C005A60FB685A687B689A4203D17B689A6809
:10148C00FB685A607B6800221A61FB681B685A1E55
:10149C00FB681A60FB681B6818461437BD465DF87C
:1014AC00047B704780B58CB002AFF860B9603B60CC
:1014BC001346FB80FB68002B09D14FF0500383F3DC
:1014CC001188BFF36F8FBFF34F8F3B61FEE73B6B10
:1014DC00062B09D94FF0500383F31188BFF36F8F9C
:1014EC00BFF34F8F7B61FEE7FB88B96B184600F0AA
:1014FC0027FC38623B6A002B00F083803B6A1A6B36
:10150C00FB8803F18043013B9B001344FB61FB69A7
:10151C0023F00703FB61FB6903F00703002B09D0E1
:10152C004FF0500383F31188BFF36F8FBFF34F8FCE
:10153C00BB61FEE7FB880093FB6B3A6BB968386ABA
:10154C0000F0F6FA3A68F968F869FFF7B9FC024658
:10155C003B6A1A607B6B002B02D07B6B3A6A1A6079
:10156C00FFF7ACFD354B1B680133344A1360344B29
:10157C001B68002B09D1324A3B6A13602F4B1B6846
:10158C00012B0FD100F02AFB0CE02E4B1B68002B1B
:10159C0008D12B4B1B68DA6A3B6B9A4202D8284A5B
:1015AC003B6A13603B6ADA6A274B1B689A4203D981
:1015BC003B6ADB6A244A1360244B1B680133234AC1
:1015CC001360224B1A683B6A5A643B6ADB6A01223D
:1015DC009A401F4B1B6813431D4A13603B6ADA6A1F
:1015EC0013469B0013449B001A4A1A443B6A04336B
:1015FC0019461046FFF7CEFE01237B62FFF78CFDE8
:10160C0002E04FF0FF337B627B6A012B11D10D4B53
:10161C001B68002B0DD00A4B1B68DA6A3B6B9A4295
:10162C0007D20D4B4FF080521A60BFF34F8FBFF3B0
:10163C006F8F7B6A18462837BD4680BD6C410020F1
:10164C006C4000207C410020744100208C41002023
:10165C00784100207040002004ED00E080B586B099
:10166C0000AF786000237B617B68002B2FD01F4B71
:10167C001B68002B09D04FF0500383F31188BFF384
:10168C006F8FBFF34F8FFB60FEE700F07FF8184BB6
:10169C001A687B6813443B61164B1B68043318466D
:1016AC00FFF7D6FE0346002B0BD1124B1B68DB6AEF
:1016BC00012202FA03F3DA430F4B1B6813400E4A64
:1016CC001360386900F006FB00F06EF878617B69F6
:1016DC00002B07D1094B4FF080521A60BFF34F8F8C
:1016EC00BFF36F8F00BF1837BD4680BD94410020FB
:1016FC00704100206C4000207841002004ED00E097
:10170C0080B588B004AF0023039300230293002319
:10171C000193002300930023802217491748FFF7F9
:10172C00C1FEF860FB68012B15D14FF0500383F319
:10173C001188BFF36F8FBFF34F8F7B60104B4FF04F
:10174C00FF321A600F4B01221A600F4B00221A60F5
:10175C00FFF728FC0CE0FB68002B09D14FF050037D
:10176C0083F31188BFF36F8FBFF34F8FBB60FEE71E
:10177C0000BF1037BD4680BDA83400080D1B000803
:10178C00904100207C4100207041002080B400AFCB
:10179C00044B1B680133034A136000BFBD465DF860
:1017AC00047B70479441002080B584B000AF0023C7
:1017BC00FB603E4B1B68002B09D14FF0500383F3A9
:1017CC001188BFF36F8FBFF34F8F7B60FEE7FFF77E
:1017DC0075FC364B1B68013B344A1360334B1B685A
:1017EC00002B5BD1324B1B68002B57D02EE0314BBA
:1017FC00DB68DB68BB60BB6818331846FFF728FE54
:10180C00BB6804331846FFF723FEBB68DB6A012272
:10181C009A40294B1B681343274A1360BB68DA6A4A
:10182C0013469B0013449B00244A1A44BB680433A0
:10183C0019461046FFF7AEFDBB68DA6A204B1B68F1
:10184C00DB6A9A4202D31F4B01221A60194B1B68A8
:10185C00002BCCD11C4B1B68002B11D00CE000F0E2
:10186C0037F80346002B02D0164B01221A60164B98
:10187C001B68013B144A1360134B1B68002BEED101
:10188C00104B1B68012B09D10123FB600F4B4FF050
:10189C0080521A60BFF34F8FBFF36F8FFFF73CFC82
:1018AC00FB6818461037BD4680BD00BF9441002030
:1018BC006C4100202C410020784100207040002019
:1018CC006C400020844100208041002004ED00E0A9
:1018DC0080B586B000AF00237B61514B1B68002B99
:1018EC0040F08D804F4B1B6801334E4A13604D4BBB
:1018FC001B683B613B69002B1FD14B4B1B681B6862
:10190C00002B09D04FF0500383F31188BFF36F8F76
:10191C00BFF34F8F3B60FEE7434B1B68FB60434BB1
:10192C001B68414A1360414AFB681360404B1B68BB
:10193C0001333F4A136000F049FA3E4B1B683A6989
:10194C009A424DD3384B1B681B68002B01D10123E5
:10195C0000E00023002B04D0364B4FF0FF321A600E
:10196C003EE0314B1B68DB68DB68BB60BB685B68C7
:10197C007B603A697B689A4203D22E4A7B6813607B
:10198C002EE0BB6804331846FFF762FDBB689B6A08
:10199C00002B04D0BB6818331846FFF759FDBB6801
:1019AC00DB6A01229A40244B1B681343224A1360C2
:1019BC00BB68DA6A13469B0013449B001F4A1A4407
:1019CC00BB68043319461046FFF7E4FCBB68DA6ABF
:1019DC001B4B1B68DB6A9A42B4D301237B61B1E7D2
:1019EC00174B1B68DA6A154913469B0013449B007E
:1019FC000B441B68012B07D901237B6104E0114BBD
:101A0C001B6801330F4A13600F4B1B68002B01D06E
:101A1C0001237B617B6918461837BD4680BD00BF2A
:101A2C0094410020704100202441002028410020D6
:101A3C008841002090410020784100207040002017
:101A4C006C400020804100208441002080B487B08D
:101A5C0000AF264B1B68002B03D0254B01221A60CC
:101A6C003EE0234B00221A60224B1B68BB60BB6814
:101A7C00B3FA83F3FB71FB79C3F11F033B611E497E
:101A8C003A6913469B0013449B000B441B68002BC4
:101A9C0009D14FF0500383F31188BFF36F8FBFF35D
:101AAC004F8F7B61FEE73A6913469B0013449B0002
:101ABC00114A1344FB60FB685B685A68FB685A6008
:101ACC00FB685A68FB6808339A4204D1FB685B6870
:101ADC005A68FB685A60FB685B68DB68074A1360EE
:101AEC0000BF1C37BD465DF8047B70479441002055
:101AFC008441002078410020704000206C40002080
:101B0C0080B582B000AF786000F0A8F8064B1B6877
:101B1C00012BF9D9054B4FF080521A60BFF34F8F50
:101B2C00BFF36F8FF0E700BF7040002004ED00E0C2
:101B3C0080B586B000AFF860B9607A603B60002376
:101B4C007B6114E0BA687B69134493F90010FA685E
:101B5C007B69134434330A461A70BA687B691344A0
:101B6C0093F90030002B06D07B6901337B617B69D4
:101B7C000F2BE7D900E000BFFB68002283F843205D
:101B8C007B68062B01D906237B60FB687A68DA62D6
:101B9C00FB687A68DA64FB6800221A65FB68043318
:101BAC001846FFF7E9FBFB6818331846FFF7E4FB10
:101BBC00FB68FA681A617B68C3F10702FB689A61DB
:101BCC00FB68FA685A62FB6800225A65FB680022BF
:101BDC0083F8582000BF1837BD4680BD80B582B051
:101BEC0000AF00237B600CE07A6813469B00134423
:101BFC009B00124A13441846FFF79EFB7B68013387
:101C0C007B607B68062BEFD90D48FFF795FB0D48E1
:101C1C00FFF792FB0C48FFF78FFB0C48FFF78CFB90
:101C2C000B48FFF789FB0B4B054A1A600A4B054A18
:101C3C001A6000BF0837BD4680BD00BF7040002051
:101C4C00FC400020104100202C410020404100208D
:101C5C0058410020244100202841002080B582B04A
:101C6C0000AF28E0FFF792FD174B1B68002B0CBF51
:101C7C0001230023DBB27B60FFF796FD7B68002B12
:101C8C0019D1FFF71BFA104BDB68DB683B603B6834
:101C9C0004331846FFF7DCFB0C4B1B68013B0B4A6B
:101CAC0013600B4B1B68013B094A1360FFF734FAB6
:101CBC00386800F07BF8064B1B68002BD2D100BFB4
:101CCC000837BD4680BD00BF404100206C4100205C
:101CDC005441002080B582B000AF7860134B1B6874
:101CEC007A685A60124B1B687A689A4209D2114B77
:101CFC001A680E4B1B68043319461046FFF76EFB2F
:101D0C0010E00D4B1A68094B1B680433194610463A
:101D1C00FFF764FB094B1B687A689A4202D2074AA8
:101D2C007B68136000BF0837BD4680BD6C40002047
:101D3C0070410020284100202441002090410020C7
:101D4C0080B584B000AF03463960FB803B68002B44
:101D5C0006D1FB889B001846FEF7DCFE034600E02C
:101D6C003B68BB60BB68002B0ED05C20FEF7D2FE3C
:101D7C00F860FB68002B03D0FB68BA681A6305E0B7
:101D8C00B868FEF789FF01E00023FB60FB68002BBD
:101D9C0007D0FB68186BFB889B001A46A52101F045
:101DAC009BFAFB6818461037BD4680BD80B582B0E3
:101DBC0000AF78607B681B6B1846FEF76DFF786888
:101DCC00FEF76AFF00BF0837BD4680BD80B483B004
:101DDC0000AF0F4B1B681B68002B01D1012300E0E7
:101DEC000023002B04D00B4B4FF0FF321A6008E09D
:101DFC00074B1B68DB68DB687B607B685B68054AAC
:101E0C00136000BF0C37BD465DF8047B704700BF04
:101E1C00244100209041002080B483B000AF0B4BD4
:101E2C001B68002B02D101237B6008E0084B1B6868
:101E3C00002B02D102237B6001E000237B607B68D6
:101E4C0018460C37BD465DF8047B70477C4100207A
:101E5C009441002080B500AF0E4A0E4B1B6843F432
:101E6C00007313600B4A0B4B1B6843F480631360C5
:101E7C00084A084B1B6843F480731360032000F07E
:101E8C00EFF80020FEF7A6FDFEF772FD00231846C2
:101E9C0080BD00BF003C024080B400AF044B1B6807
:101EAC000133034A136000BFBD465DF8047B7047E5
:101EBC00D841002080B400AF034B1B681846BD46C8
:101ECC005DF8047B704700BFD841002080B485B01A
:101EDC0000AF78607B6803F00703FB600C4BDB689A
:101EEC00BB60BA684FF6FF031340BB60FB681A0275
:101EFC00BB68134343F0BF6343F40033BB60044A35
:101F0C00BB68D36000BF1437BD465DF8047B7047D7
:101F1C0000ED00E080B400AF044BDB6803F4E06339
:101F2C001B0A1846BD465DF8047B704700ED00E0C7
:101F3C0080B483B000AF0346FB71094997F90730B1
:101F4C005B09FA7902F01F02012000FA02F241F853
:101F5C00232000BF0C37BD465DF8047B704700BFE3
:101F6C0000E100E080B483B000AF03463960FB7140
:101F7C0097F90730002B0BDA0D49FB7903F00F03AF
:101F8C00043B3A68D2B21201D2B20B441A7609E081
:101F9C00084997F907303A68D2B21201D2B20B4411
:101FAC0083F8002300BF0C37BD465DF8047B7047F7
:101FBC0000ED00E000E100E080B489B000AFF86013
:101FCC00B9607A60FB6803F00703FB61FB69C3F13E
:101FDC000703042B28BF0423BB61FB690433062BC6
:101FEC0002D9FB69033B00E000237B610122BB6942
:101FFC0002FA03F35A1EBB681A407B699A4001210E
:10200C007B6901FA03F3591E7B680B401343184696
:10201C002437BD465DF8047B704700BF80B582B0A5
:10202C0000AF78607B68013BB3F1807F01D3012363
:10203C000FE00A4A7B68013B53600F214FF0FF30E1
:10204C00FFF790FF054B00229A60044B07221A60A1
:10205C00002318460837BD4680BD00BF10E000E0E5
:10206C0080B582B000AF78607868FFF72FFF00BFB3
:10207C000837BD4680BD00BF80B586B000AF0346B3
:10208C00B9607A60FB7300237B61FFF743FF7861D3
:10209C007A68B9687869FFF78FFF024697F90F30B5
:1020AC0011461846FFF75EFF00BF1837BD4680BDCE
:1020BC0080B582B000AF0346FB7197F90730184624
:1020CC00FFF736FF00BF0837BD4680BD80B582B034
:1020DC0000AF78607868FFF7A1FF03461846083711
:1020EC00BD4680BD80B483B000AF78607B68042BA4
:1020FC0006D1094A084B1B6843F00403136005E042
:10210C00054A054B1B6823F00403136000BF0C3712
:10211C00BD465DF8047B704710E000E080B489B0E8
:10212C0000AF7860396000237B6100233B610023A2
:10213C00BB610023FB6177E10122FB6902FA03F327
:10214C007B613B681A687B6913403B613A697B6928
:10215C009A4240F066813B685B68022B03D03B6877
:10216C005B68122B23D1FB69DA087B68083253F8C1
:10217C002230BB61FB6903F007039B000F2202FABC
:10218C0003F3DB43BA691340BB613B681A69FB6913
:10219C0003F007039B0002FA03F3BA691343BB6114
:1021AC00FB69DA087B680832B96943F822107B684E
:1021BC001B68BB61FB695B00032202FA03F3DB4380
:1021CC00BA691340BB613B685B6803F00302FB69AF
:1021DC005B0002FA03F3BA691343BB617B68BA690B
:1021EC001A603B685B68012B0BD03B685B68022B69
:1021FC0007D03B685B68112B03D03B685B68122BE4
:10220C0030D17B689B68BB61FB695B00032202FADF
:10221C0003F3DB43BA691340BB613B68DA68FB69C3
:10222C005B0002FA03F3BA691343BB617B68BA69BA
:10223C009A607B685B68BB610122FB6902FA03F35D
:10224C00DB43BA691340BB613B685B681B0903F055
:10225C000102FB6902FA03F3BA691343BB617B68A1
:10226C00BA695A607B68DB68BB61FB695B0003225F
:10227C0002FA03F3DB43BA691340BB613B689A680B
:10228C00FB695B0002FA03F3BA691343BB617B6819
:10229C00BA69DA603B685B6803F08053002B00F08E
:1022AC00C0800023FB60654A644B5B6C43F4804345
:1022BC005364624B5B6C03F48043FB60FB68604AC5
:1022CC00FB699B08023352F82330BB61FB6903F0B6
:1022DC0003039B000F2202FA03F3DB43BA6913409A
:1022EC00BB617B68574A934237D07B68564A93420E
:1022FC0031D07B68554A93422BD07B68544A934229
:10230C0025D07B68534A93421FD07B68524A934234
:10231C0019D07B68514A934213D07B68504A934240
:10232C000DD07B684F4A934207D07B684E4A93424C
:10233C0001D1092312E00A2310E008230EE0072341
:10234C000CE006230AE0052308E0042306E003233F
:10235C0004E0022302E0012300E00023FA6902F00A
:10236C00030292009340BA691343BB613449FB6981
:10237C009B080233BA6941F823203C4B1B68BB61B4
:10238C003B69DB43BA691340BB613B685B6803F490
:10239C008033002B03D0BA693B691343BB61334ACA
:1023AC00BB691360314B5B68BB613B69DB43BA694A
:1023BC001340BB613B685B6803F40033002B03D014
:1023CC00BA693B691343BB61284ABB695360274B0D
:1023DC009B68BB613B69DB43BA691340BB613B68DB
:1023EC005B6803F48013002B03D0BA693B69134379
:1023FC00BB611E4ABB6993601C4BDB68BB613B69CC
:10240C00DB43BA691340BB613B685B6803F40013A0
:10241C00002B03D0BA693B691343BB61134ABB69F8
:10242C00D360FB690133FB61FB690F2B7FF684AE34
:10243C0000BF2437BD465DF8047B7047003802406E
:10244C000038014000000240000402400008024035
:10245C00000C024000100240001402400018024020
:10246C00001C02400020024000240240003C0140BD
:10247C0080B483B000AF78600B467B8013467B70D2
:10248C007B78002B03D07A887B689A6103E07B8889
:10249C001A047B689A6100BF0C37BD465DF8047B5B
:1024AC00704700BF80B586B000AF00237B6100236E
:1024BC003B602E4A2D4B1B6C43F0805313642B4B0B
:1024CC001B6C03F080533B603B684FF48033FB6024
:1024DC00FB6893FAA3F3BB60BB68B3FA83F303F115
:1024EC00845303F560339B001A4601231360FFF7F6
:1024FC00E1FC786109E0FFF7DDFC02467B69D31A49
:10250C00B3F57A7F01D903232CE0194B5B6803F4F4
:10251C008033002BEFD04FF400333B613B6993FACF
:10252C00A3F37B607B68B3FA83F303F1845303F565
:10253C0060339B001A4601231360FFF7BBFC7861E4
:10254C0009E0FFF7B7FC02467B69D31AB3F57A7F33
:10255C0001D9032306E0064B5B6803F40033002B20
:10256C00EFD0002318461837BD4680BD0038024016
:10257C000070004080B58EB000AF786000237B63A4
:10258C007B681B6803F00103002B74D0A44B9B6881
:10259C0003F00C03042B0BD0A14B9B6803F00C0332
:1025AC00082B11D19E4B5B6803F48003002B0BD0DE
:1025BC009B4B1B6803F40033002B5BD07B685B6880
:1025CC00002B57D1012325E27B685B68B3F5803F74
:1025DC0006D1934A924B1B6843F4803313601DE081
:1025EC007B685B68B3F5A02F0CD18D4A8C4B1B68B4
:1025FC0043F4802313608A4A894B1B6843F480336D
:10260C0013600BE0864A864B1B6823F480331360FF
:10261C00834A834B1B6823F4802313607B685B68BD
:10262C00002B13D0FFF746FC786308E0FFF742FC61
:10263C0002467B6BD31A642B01D90323EAE1784B56
:10264C001B6803F40033002BF0D014E0FFF732FCCE
:10265C00786308E0FFF72EFC02467B6BD31A642BE1
:10266C0001D90323D6E16E4B1B6803F40033002B16
:10267C00F0D100E000BF7B681B6803F00203002B65
:10268C0077D0674B9B6803F00C03002B0BD0644B8B
:10269C009B6803F00C03082B26D1614B5B6803F499
:1026AC008003002B20D15E4B1B6803F00203002B30
:1026BC0005D07B68DB68012B01D00123AAE15848C7
:1026CC00574B1B6823F0F8027B681969F8233B62AF
:1026DC003B6A93FAA3F3FB61FB69B3FA83F301FA48
:1026EC0003F31343036044E07B68DB68002B2AD0C0
:1026FC004C4B01221A60FFF7DDFB786308E0FFF713
:10270C00D9FB02467B6BD31A022B01D9032381E13F
:10271C00434B1B6803F00203002BF0D04048404BA6
:10272C001B6823F0F8027B681969F823FB62FB6ACB
:10273C0093FAA3F3BB61BB69B3FA83F301FA03F316
:10274C001343036015E0374B00221A60FFF7B2FB0E
:10275C00786308E0FFF7AEFB02467B6BD31A022BC3
:10276C0001D9032356E12E4B1B6803F00203002B07
:10277C00F0D17B681B6803F00803002B30D07B681A
:10278C005B69002B16D0284B01221A60FFF792FBD5
:10279C00786308E0FFF78EFB02467B6BD31A022BA3
:1027AC0001D9032336E11E4B5B6F03F00203002BB0
:1027BC00F0D015E01C4B00221A60FFF77BFB78630E
:1027CC0008E0FFF777FB02467B6BD31A022B01D98B
:1027DC0003231FE1124B5B6F03F00203002BF0D1BC
:1027EC007B681B6803F00403002B00F08780002338
:1027FC00BB600B4A0A4B1B6C43F080531364084BB1
:10280C001B6C03F08053BB60BB68084A074B1B680A
:10281C0043F480731360FFF74DFB786311E000BF46
:10282C000038024000004742800E474200700040D2
:10283C00FFF740FB02467B6BD31A022B01D9032313
:10284C00E8E0764B1B6803F48073002BF0D07B68B8
:10285C009B68012B06D1724A714B1B6F43F001032D
:10286C0013671CE07B689B68052B0CD16C4A6C4B86
:10287C001B6F43F004031367694A694B1B6F43F0EA
:10288C00010313670BE0664A654B1B6F23F00103D2
:10289C001367634A624B1B6F23F0040313677B6857
:1028AC009B68002B15D0FFF705FB78630AE0FFF758
:1028BC0001FB02467B6BD31A41F28832934201D959
:1028CC000323A7E0564B1B6F03F00203002BEED043
:1028DC0014E0FFF7EFFA78630AE0FFF7EBFA024631
:1028EC007B6BD31A41F28832934201D9032391E0D6
:1028FC004B4B1B6F03F00203002BEED17B689B69E3
:10290C00002B00F08680464B9B6803F00C03082BD1
:10291C007DD07B689B69022B62D1424B00221A60EE
:10292C00FFF7C8FA786308E0FFF7C4FA02467B6B3E
:10293C00D31A022B01D903236CE0394B1B6803F02B
:10294C000073002BF0D136487B68DA697B681B6A10
:10295C001A437B68596A47F6C073BB62BB6A93FA29
:10296C00A3F3FB60FB68B3FA83F301FA03F31A4396
:10297C007B689B6A5B08591E4FF440337B627B6A11
:10298C0093FAA3F33B613B69B3FA83F301FA03F3C4
:10299C001A437B68D96A4FF070633B633B6B93FAC5
:1029AC00A3F37B617B69B3FA83F301FA03F313435B
:1029BC0043601C4B01221A60FFF77CFA786308E035
:1029CC00FFF778FA02467B6BD31A022B01D903234B
:1029DC0020E0134B1B6803F00073002BF0D018E0C1
:1029EC00104B00221A60FFF765FA786308E0FFF7D6
:1029FC0061FA02467B6BD31A022B01D9032309E03F
:102A0C00074B1B6803F00073002BF0D101E001238E
:102A1C0000E0002318463837BD4680BD00700040EA
:102A2C00003802406000474280B586B000AF786045
:102A3C00396000237B61814B1B6803F00F023B68FC
:102A4C009A420CD27D4B3A68D2B21A707B4B1B68FF
:102A5C0003F00F023B689A4201D00123EAE07B6845
:102A6C001B6803F00203002B08D07549744B9B685C
:102A7C0023F0F0027B689B6813438B607B681B68B8
:102A8C0003F00103002B00F086807B685B68012B50
:102A9C0007D16B4B1B6803F40033002B19D10123B6
:102AAC00C8E07B685B68022B03D07B685B68032BF8
:102ABC0007D1634B1B6803F00073002B09D1012372
:102ACC00B8E05F4B1B6803F00203002B01D101231C
:102ADC00B0E05B495A4B9B6823F003027B685B6850
:102AEC0013438B60FFF7E6F978617B685B68012B19
:102AFC0012D10AE0FFF7DEF902467B69D31A41F2E4
:102B0C008832934201D9032394E04D4B9B6803F028
:102B1C000C03042BEED13EE07B685B68022B12D1D8
:102B2C000AE0FFF7C7F902467B69D31A41F28832F3
:102B3C00934201D903237DE0414B9B6803F00C03C6
:102B4C00082BEED127E07B685B68032B1DD10AE0D4
:102B5C00FFF7B0F902467B69D31A41F288329342EF
:102B6C0001D9032366E0364B9B6803F00C030C2B56
:102B7C00EED110E0FFF79EF902467B69D31A41F2C1
:102B8C008832934201D9032354E02D4B9B6803F008
:102B9C000C03002BEED1294B1B6803F00F023B6892
:102BAC009A420CD9254B3A68D2B21A70234B1B6847
:102BBC0003F00F023B689A4201D001233AE07B6894
:102BCC001B6803F00403002B08D01D491C4B9B68A9
:102BDC0023F4E0527B68DB6813438B607B681B68D3
:102BEC0003F00803002B09D01549154B9B6823F4FF
:102BFC0060427B681B69DB0013438B6000F026F896
:102C0C0001460F4B9B6803F0F002F0233B613B69DC
:102C1C0093FAA3F3FB60FB68B3FA83F322FA03F392
:102C2C00084AD35C21FA03F3074A13600020FDF72E
:102C3C00D1FE002318461837BD4680BD003C02402B
:102C4C0000380240B03400080000002080B48BB083
:102C5C0000AF0023FB6100237B620023BB610023D8
:102C6C003B62364B9B6803F00C03042B06D0082BFD
:102C7C0007D0002B58D1324B3B6258E0314B3B62B2
:102C8C0055E02E4B5B6803F03F03FB612B4B5B68FD
:102C9C0003F48003002B17D02A4AFB69B2FBF3F232
:102CAC00264B596847F6C0730B4047F6C071F96064
:102CBC00F96891FAA1F1B960B968B1FA81F1CB4028
:102CCC0003FB02F37B6216E01D4AFB69B2FBF3F2D5
:102CDC001A4B596847F6C0730B4047F6C0717961BF
:102CEC00796991FAA1F179607968B1FA81F1CB40F7
:102CFC0003FB02F37B62114B5B6803F440324FF42D
:102D0C0040333B613B6993FAA3F33B603B68B3FAF6
:102D1C0083F322FA03F301335B00BB617A6ABB696C
:102D2C00B2FBF3F33B6202E0054B3B6200BF3B6A34
:102D3C0018462C37BD465DF8047B704700380240BE
:102D4C000024F40000127A0080B400AF034B1B681F
:102D5C001846BD465DF8047B704700BF000000209C
:102D6C0080B582B000AFFFF7EFFF01460B4B9B68BD
:102D7C0003F4E0524FF4E0537B607B6893FAA3F3C7
:102D8C003B603B68B3FA83F322FA03F3044AD35C47
:102D9C0021FA03F318460837BD4680BD00380240BF
:102DAC00B034000880B483B000AF786039607B68C1
:102DBC000F221A60124B9B6803F003027B685A6067
:102DCC000F4B9B6803F0F0027B689A600C4B9B687E
:102DDC0003F4E0527B68DA60094B9B6803F46043B0
:102DEC00DA087B681A61074B1B6803F00F023B681B
:102DFC001A6000BF0C37BD465DF8047B704700BFFE
:102E0C0000380240003C024080B582B000AF7860D0
:102E1C007B68002B01D101231DE07B6893F83930CE
:102E2C00DBB2002B06D17B68002283F8382078684F
:102E3C0000F016F87B68022283F839207B681A6848
:102E4C007B6804331946104600F060F97B68012258
:102E5C0083F83920002318460837BD4680BD00BFD3
:102E6C0080B483B000AF786000BF0C37BD465DF80E
:102E7C00047B704780B483B000AF78607B681B68BC
:102E8C007A681268D26842F00102DA607B681B68CB
:102E9C007A681268126842F001021A600023184620
:102EAC000C37BD465DF8047B704700BF80B582B01F
:102EBC0000AF78607B681B681B6903F00203002B72
:102ECC0022D07B681B68DB6803F00203002B1BD04D
:102EDC007B681B686FF002021A617B6801221A760C
:102EEC007B681B689B6903F00303002B03D0786895
:102EFC0000F0EEF805E0786800F0E0F8786800F093
:102F0C00F1F87B6800221A767B681B681B6903F05A
:102F1C000403002B22D07B681B68DB6803F00403DE
:102F2C00002B1BD07B681B686FF004021A617B6856
:102F3C0002221A767B681B689B6903F44073002B92
:102F4C0003D0786800F0C4F805E0786800F0B6F8B3
:102F5C00786800F0C7F87B6800221A767B681B68DB
:102F6C001B6903F00803002B22D07B681B68DB680D
:102F7C0003F00803002B1BD07B681B686FF0080262
:102F8C001A617B6804221A767B681B68DB6903F084
:102F9C000303002B03D0786800F09AF805E07868FA
:102FAC0000F08CF8786800F09DF87B6800221A76A7
:102FBC007B681B681B6903F01003002B22D07B6815
:102FCC001B68DB6803F01003002B1BD07B681B68AD
:102FDC006FF010021A617B6808221A767B681B68F6
:102FEC00DB6903F44073002B03D0786800F070F8B1
:102FFC0005E0786800F062F8786800F073F87B6898
:10300C0000221A767B681B681B6903F00103002BF6
:10301C000ED07B681B68DB6803F00103002B07D024
:10302C007B681B686FF001021A617868FDF78AFCF7
:10303C007B681B681B6903F08003002B0ED07B6838
:10304C001B68DB6803F08003002B07D07B681B68D0
:10305C006FF080021A61786800F00CF97B681B68CD
:10306C001B6903F04003002B0ED07B681B68DB68E8
:10307C0003F04003002B07D07B681B686FF0400205
:10308C001A61786800F038F87B681B681B6903F0DC
:10309C002003002B0ED07B681B68DB6803F0200339
:1030AC00002B07D07B681B686FF020021A617868D0
:1030BC0000F0D6F800BF0837BD4680BD80B483B0A1
:1030CC0000AF786000BF0C37BD465DF8047B7047DD
:1030DC0080B483B000AF786000BF0C37BD465DF89C
:1030EC00047B704780B483B000AF786000BF0C37AE
:1030FC00BD465DF8047B704780B483B000AF786048
:10310C0000BF0C37BD465DF8047B704780B485B0BA
:10311C0000AF786039600023FB607B681B68FB6044
:10312C007B68444A934213D07B68B3F1804F0FD035
:10313C007B68414A93420BD07B68404A934207D04C
:10314C007B683F4A934203D07B683E4A934201D14D
:10315C00012300E00023002B08D0FB6823F0700350
:10316C00FB603B685B68FA681343FB607B68314A21
:10317C0093422BD07B68B3F1804F27D07B682E4ACB
:10318C00934223D07B682D4A93421FD07B682C4AF4
:10319C0093421BD07B682B4A934217D07B682A4AF8
:1031AC00934213D07B68294A93420FD07B68284AFC
:1031BC0093420BD07B68274A934207D07B68264A00
:1031CC00934203D07B68254A934201D1012300E04E
:1031DC000023002B08D0FB6823F44073FB603B6892
:1031EC00DB68FA681343FB607B68FA681A603B681B
:1031FC009A687B68DA623B681A687B689A627B68BB
:10320C000C4A934203D07B680E4A934201D10123AE
:10321C0000E00023002B03D03B681A697B681A631B
:10322C007B6801225A6100BF1437BD465DF8047BF0
:10323C00704700BF0000014000040040000800403F
:10324C00000C0040000401400040014000440140DB
:10325C000048014000180040001C004000200040C5
:10326C0080B483B000AF786000BF0C37BD465DF80A
:10327C00047B704780B483B000AF786000BF0C371C
:10328C00BD465DF8047B704770B50F4E0F4D761B35
:10329C00B61018BF002405D0013455F8043B9847EC
:1032AC00A642F9D10A4E0B4D761B00F0D9F8B61098
:1032BC0018BF002406D0013455F8043B9847A642A9
:1032CC00F9D170BD70BD00BFC4340008C43400080F
:1032DC00CC340008C434000870B4840746D0541EA3
:1032EC00002A41D0CDB2034602E0621EE4B314467C
:1032FC0003F8015B9A07F8D1032C2ED9CDB245EA1D
:10330C0005250F2C45EA054519D903F1100226466F
:10331C00103E0F2E42F8105C42F80C5C42F8085C30
:10332C0042F8045C02F11002F2D8A4F1100222F06F
:10333C000F0204F00F041032032C13440DD91E4657
:10334C002246043A032A46F8045BFAD8221F22F0DC
:10335C0003020432134404F003042CB1C9B21C441C
:10336C0003F8011BA342FBD170BC70471446034603
:10337C00C2E700BF024B13B1024800F005B870471A
:10338C0000000000A1330008002301461A4618462D
:10339C0000F014B838B5074D074C2C1BA41005D001
:1033AC00013C55F8043D9847002CF9D1BDE8384054
:1033BC0000F05CB8D0340008CC3400082DE9F0479C
:1033CC00254C2568D5F848410646884692469946CC
:1033DC00C4B360681F2817DC431C76B104EB80056E
:1033EC000122C5F888A0D4F8881182401143022E1E
:1033FC00C4F88811C5F808911ED00230636044F8F7
:10340C0020800020BDE8F087144B03B34FF4C87044
:10341C00AFF300800446D0B1D5F84831002780E8DE
:10342C008800C5F8484138460123C4F88871C4F8AF
:10343C008C71002EE1D0D1E7D4F88C110A43C4F87A
:10344C008C21DAE705F5A674C5F84841C1E74FF0C1
:10345C00FF30BDE8F08700BFC0340008000000005A
:10346C00F8B500BFF8BC08BC9E467047F8B500BF65
:08347C00F8BC08BC9E46704735
:103484004C45440064656661756C745461736B00EB
:103494008834000841090008000000000000000012
:1034A4008000000049444C4500000000000000007A
:1034B40001020304010203040607080908000020AE
:0834C40081330008D10100086A
:0434CC00AD01000846
:1034D0000024F400AAAAAAAA00000000F402002016
:1034E0005C030020C4030020000000000000000076
:1034F00000000000000000000000000000000000CC
:1035000000000000000000000000000000000000BB
:1035100000000000000000000000000000000000AB
:10352000000000000000000000000000000000009B
:10353000000000000000000000000000000000008B
:10354000000000000000000000000000000000007B
:10355000000000000000000000000000000000006B
:10356000000000000000000000000000000000005B
:10357000000000000000000000000000000000004B
:1035800001000000000000000E33CDAB34126DE6E8
:10359000ECDE05000B000000000000000000000051
:1035A000000000000000000000000000000000001B
:1035B000000000000000000000000000000000000B
:1035C00000000000000000000000000000000000FB
:1035D00000000000000000000000000000000000EB
:0400000508000209E4
:00000001FF
