:1000000002025D881DD2F8D0D0BDA3BFCD8815D027
:10001000ECC8B5C7BF515101620301610F202041F7
:100020000000112233660300000023591314151633
:10003000FF010101008185080F202200000000005F
:1000400000C2E87D0C7F20020530320202E9EBF2AB
:1000500008EAF208E9F2C2E98FE7E5E630E1FBAF32
:10006000E722AFDCEF5410FFF5DC2202004AE4780F
:1000700000F208F208F208F2FD08F208F208F212A3
:100080000569D29312057012039690FA00E064AAF3
:10009000701DA3E0F56174022DF582E434FAF58356
:1000A000E0FF74472DF8A6070DEDB41AE9800B7D2B
:1000B0001A7847E4F608DDFC7D1A85614112034198
:1000C000D2AF120541120062EF6005E4F5428003F1
:1000D00075428012055D120578D37803E294DC182E
:1000E000E294054052E4F5207F0AFE1204E1120575
:1000F0000DA204720550FAE4F5201200417806E2E0
:100100007003E204F27806E24242C37801E294020C
:1001100018E29400400B12041C43AE0275A4018047
:10012000B57801E22401F218E23400F212057412EB
:10013000041C75A404809F7803E22401F218E234C1
:1001400000F27F017E001204E130068AE4F520E52A
:1001500021B54310E522B5440BE523B54506E5245A
:1001600065466020E521F460030200D6E522F460D4
:10017000030200D6E523F460030200D6E524F46010
:10018000030200D6E525245660030200D61204B40B
:100190000200D67809EBF208EAF208E9F28F828EC3
:1001A00083C3E58394FA500302025CD3E58294FF93
:1001B000E58394FF400302025CA2AF92D5C2AFD2A6
:1001C000FDC3E58394FA4012E58394FC500C75FA64
:1001D0002020FCFD75FA2120FCFDC3E58394FC4042
:1001E00011D3E58294FFE58394FF500675FA22202F
:1001F000FCFDC3E58394FE4011D3E58294FFE583C3
:1002000094FF500675FA2320FCFD7FE87E0312045C
:10021000E1AE83AF828E088F09780C08E2FF24FFDD
:10022000F218E2FE34FFF2EF4E602B7809E2FB0891
:1002300008E2F92401F218E2FA3400F21203E1FFB5
:100240000509E509AC087002050814F5828C83EFF6
:10025000F030FCC580FBC2FDA2D592AF22787FE4CE
:10026000F6D8FD7581620202A402006EE493A3F841
:10027000E493A34003F68001F208DFF48029E493BD
:10028000A3F85407240CC8C333C4540F4420C883B4
:100290004004F456800146F6DFE4800B01020408B6
:1002A00010204080900003E47E019360BCA3FF54C3
:1002B0003F30E509541FFEE493A360010ECF54C004
:1002C00025E060A840B8E493A3FAE493A3F8E4938C
:1002D000A3C8C582C8CAC583CAF0A3C8C582C8CA94
:1002E000C583CADFE9DEE780BEC0E0C083C082C04C
:1002F000D075D000C000C001C002C003C005C00658
:10030000C0077F071205508F203006177B007A0048
:10031000792178147420F27F61120450E4FD7FE2A9
:100320001205307D707F27120530D007D006D0052A
:10033000D003D002D001D000D0D0D082D083D0E082
:1003400032C2E8D2EAD2B97FE87E031204E17BFE32
:100350007A00791D780B7408F27F301204827BFEDC
:100360007A007915780B7408F27F2A1204827D01D5
:100370007F211205307F221205307D1A7F2412055D
:10038000307D287F25120530AD617F261205307D36
:10039000207F31020530E4FFE42FF582E434FCF5E0
:1003A00083E0FE74072FF8EEF20FEFB409EA780F3E
:1003B000E264A5601A78077401F20804F20804F2F6
:1003C0000804F20804F20804F20804F20804F278BF
:1003D0000AE2F54318E2F54418E2F54518E2F5465D
:1003E00022BB010689828A83E0225002E722BBFEFB
:1003F00002E32289828A83E49322F8BB010DE5821D
:1004000029F582E5833AF583E8F0225006E9258252
:10041000C8F622BBFE05E92582C8F222759E7075DA
:100420009E71759E72759E73759E74759E75759E90
:1004300076759E777593FF759F70759F71759F7226
:10044000759F73759F74759F75759F7675947F22E0
:10045000781112004EAE07E4FD7814E2FFEDC39F61
:10046000501BE4FF1200587811E2FB08E2FA08E2A0
:10047000F98D82758300EF1203FA0D80DCD2E9AFAB
:100480000622780812004EAE07E4FD780BE2FFED7D
:10049000C39F501B7808E2FB0808E2F92401F21818
:1004A000E2FA3400F21203E1FF1200580D80DCD2B0
:1004B000E9AF0622E526640F6011E526640D600BA6
:1004C000E526640B6005E526B409157B007A007902
:1004D00025780CE4F208741CF27F007EFA12019376
:1004E00022E4FDFCC3ED9FEC9E5021780EE4F2085F
:1004F000746CF2780E08E2FB24FFF218E2FA34FF83
:10050000F2EB4A70EE0DBD00010C80D822C2E8E487
:10051000FD7FE11205307D0E7F201205307B007AD1
:10052000007941780B7420F27FA0120482D2E82275
:10053000C2E9120058AE07AF05120058D2E9AF0663
:100540002275AD0175B4FF75B52075B306D2BD2215
:10055000C2E9120058E4FF120058D2E922C2E87D35
:100560000F7F20120530D2E8227593F07594F722A0
:0C05700043DC802243B3012253B3FE227F
:00000001FF
