:100000000202958B148A158916C2E9120498AE076C
:10001000E4FDEDC395175018AB140516E516AA15A7
:100020007002051514F9120144FF1204980D80E2C4
:10003000D2E9AF0622AE05C2E9120498AD07AF06B9
:08004000120498D2E9AF052279
:10004B00020321E709F608DFFA8046E709F208DF29
:10005B00FA803E88828C83E709F0A3DFFA8032E3D3
:10006B0009F608DFFA8078E309F208DFFA80708876
:10007B00828C83E309F0A3DFFA806489828A83E0B0
:10008B00A3F608DFFA805889828A83E0A3F208DF9F
:10009B00FA804C80D280FA80C680D4806980F2804E
:1000AB0033801080A680EA809A80A880DA80E28074
:1000BB00CA803389828A83ECFAE493A3C8C582C8C9
:1000CB00CCC583CCF0A3C8C582C8CCC583CCDFE933
:1000DB00DEE7800D89828A83E493A3F608DFF9ECCF
:1000EB00FAA9F0EDFB2289828A83ECFAE0A3C8C55A
:1000FB0082C8CCC583CCF0A3C8C582C8CCC583CC81
:10010B00DFEADEE880DB89828A83E493A3F208DFEF
:10011B00F980CC88F0EF60010E4E60C388F0ED24BF
:10012B0002B4040050B9F582EB2402B4040050AFC2
:10013B00232345822390009E73BB010689828A8309
:10014B00E0225002E722BBFE02E32289828A83E48B
:10015B009322F8BB010DE58229F582E5833AF583FD
:10016B00E8F0225006E92582C8F622BBFE05E925F8
:10017B0082C8F22275080878097C007D007BFF7A23
:10018B000479AA7E007F0212011EE4F50C780D7C27
:10019B0000FD7BFF7A0479ACFE7F0212011E780F03
:1001AB007C007D007BFF7A0479AE7E007F0212011A
:1001BB001EE4F511F512F50B12047F12043C120329
:1001CB0077D2AF12048C75FCF175BCA13006FDE43F
:1001DB00F5207F2A1204A27F201204A2AF21120461
:1001EB00A2AF221204A2AF231204A2AF241204A2C4
:1001FB00AF251204A2AF261204A2AF271204A2AF9E
:10020B00281204A2AF291204A2AF2A1204A2AF2B08
:10021B001204A2AF2C1204A2AF2D1204A2AF2E1205
:10022B0004A2AF2F1204A2AF301204A2AF311204FA
:10023B00A2AF321204A2AF331204A2AF341204A243
:10024B00AF351204A2AF361204A2AF371204A2AF1D
:10025B00381204A2AF391204A2AF3A1204A2AF3B78
:10026B001204A2AF3C1204A2AF3D1204A2AF3E1285
:10027B0004A2AF3F1204A2AF401204A27F7E12046D
:10028B00A21204A21204A20201D7787FE4F6D8FDD1
:10029B007581590202DC02017FE493A3F8E493A376
:1002AB004003F68001F208DFF48029E493A3F854AD
:1002BB0007240CC8C333C4540F4420C8834004F430
:1002CB0056800146F6DFE4800B0102040810204043
:1002DB008090041CE47E019360BCA3FF543F30E587
:1002EB0009541FFEE493A360010ECF54C025E060B8
:1002FB00A840B8E493A3FAE493A3F8E493A3C8C586
:10030B0082C8CAC583CAF0A3C8C582C8CAC583CA76
:10031B00DFE9DEE780BEC0E0C083C082C0D075D00D
:10032B0000C000C001C002C003C005C006C0077FEB
:10033B00071204728F203006157B007A0079217525
:10034B001C207F611203CAE4FD7FE21200357D7031
:10035B007F27120035D007D006D005D003D002D0AE
:10036B0001D000D0D0D082D083D0E032C2E8D2EA24
:10037B00D2B97FE87E031203FB7B007A00795275BA
:10038B0017087F301200037B007A00794A75170833
:10039B007F2A1200037D207F311200357D037F21E0
:1003AB001200357D037F221200357D1A7F24120047
:1003BB00357D287F251200357D0F7F260200358B7A
:1003CB00198A1A891BC2E9120498AE07E4FDEDC322
:1003DB00951C5017E4FF120498AB19AA1AA91B8D90
:1003EB0082758300EF12015D0D80E3D2E9AF062227
:1003FB00E4FDFCC3ED9FEC9E50167B6C7A00EB1B6F
:10040B008A8370011A458370F50DBD00010C80E3E2
:10041B00220852D0ECC8B5C7BF5151084AD2F8D008
:10042B00D0BDA3BFCD094199000000000000000022
:10043B0000C2ACD29CC29FD29E43878043D88075AA
:10044B00AAF375BA03C299C298E4F59922C2E87D62
:10045B000E7F201200357B007A0079417517207FC3
:10046B00A0120003D2E822C2E9120498E4FF12049E
:10047B0098D2E9227593B07594F37FE87E0302035B
:10048B00FBC2E87D0F7F20120035D2E8228FE7E513
:10049B00E630E1FBAFE7223099FDC2998F9922FF3D
:0504AB00FF00000F0F2F
:00000001FF
